{
  "contractName": "AuditTracer",
  "abi": [
    {
      "constant": true,
      "inputs": [],
      "name": "gx",
      "outputs": [
        {
          "name": "",
          "type": "uint256"
        }
      ],
      "payable": false,
      "stateMutability": "view",
      "type": "function"
    },
    {
      "constant": true,
      "inputs": [],
      "name": "xt",
      "outputs": [
        {
          "name": "",
          "type": "uint256"
        }
      ],
      "payable": false,
      "stateMutability": "view",
      "type": "function"
    },
    {
      "constant": true,
      "inputs": [],
      "name": "a",
      "outputs": [
        {
          "name": "",
          "type": "uint256"
        }
      ],
      "payable": false,
      "stateMutability": "view",
      "type": "function"
    },
    {
      "constant": true,
      "inputs": [],
      "name": "gy",
      "outputs": [
        {
          "name": "",
          "type": "uint256"
        }
      ],
      "payable": false,
      "stateMutability": "view",
      "type": "function"
    },
    {
      "constant": true,
      "inputs": [],
      "name": "n",
      "outputs": [
        {
          "name": "",
          "type": "uint256"
        }
      ],
      "payable": false,
      "stateMutability": "view",
      "type": "function"
    },
    {
      "constant": true,
      "inputs": [],
      "name": "yt_x",
      "outputs": [
        {
          "name": "",
          "type": "uint256"
        }
      ],
      "payable": false,
      "stateMutability": "view",
      "type": "function"
    },
    {
      "constant": true,
      "inputs": [],
      "name": "tracerCreator",
      "outputs": [
        {
          "name": "",
          "type": "address"
        }
      ],
      "payable": false,
      "stateMutability": "view",
      "type": "function"
    },
    {
      "constant": true,
      "inputs": [],
      "name": "i_y",
      "outputs": [
        {
          "name": "",
          "type": "uint256"
        }
      ],
      "payable": false,
      "stateMutability": "view",
      "type": "function"
    },
    {
      "constant": true,
      "inputs": [],
      "name": "b",
      "outputs": [
        {
          "name": "",
          "type": "uint256"
        }
      ],
      "payable": false,
      "stateMutability": "view",
      "type": "function"
    },
    {
      "constant": true,
      "inputs": [],
      "name": "c_y",
      "outputs": [
        {
          "name": "",
          "type": "uint256"
        }
      ],
      "payable": false,
      "stateMutability": "view",
      "type": "function"
    },
    {
      "constant": true,
      "inputs": [],
      "name": "c_x",
      "outputs": [
        {
          "name": "",
          "type": "uint256"
        }
      ],
      "payable": false,
      "stateMutability": "view",
      "type": "function"
    },
    {
      "constant": true,
      "inputs": [],
      "name": "i_x",
      "outputs": [
        {
          "name": "",
          "type": "uint256"
        }
      ],
      "payable": false,
      "stateMutability": "view",
      "type": "function"
    },
    {
      "constant": true,
      "inputs": [],
      "name": "seed",
      "outputs": [
        {
          "name": "",
          "type": "uint256"
        }
      ],
      "payable": false,
      "stateMutability": "view",
      "type": "function"
    },
    {
      "constant": true,
      "inputs": [],
      "name": "p",
      "outputs": [
        {
          "name": "",
          "type": "uint256"
        }
      ],
      "payable": false,
      "stateMutability": "view",
      "type": "function"
    },
    {
      "constant": true,
      "inputs": [],
      "name": "yt_y",
      "outputs": [
        {
          "name": "",
          "type": "uint256"
        }
      ],
      "payable": false,
      "stateMutability": "view",
      "type": "function"
    },
    {
      "inputs": [],
      "payable": false,
      "stateMutability": "nonpayable",
      "type": "constructor"
    },
    {
      "anonymous": false,
      "inputs": [
        {
          "indexed": false,
          "name": "information",
          "type": "string"
        },
        {
          "indexed": true,
          "name": "sender",
          "type": "address"
        },
        {
          "indexed": false,
          "name": "timestamp",
          "type": "uint256"
        },
        {
          "indexed": false,
          "name": "calltimes",
          "type": "uint256"
        },
        {
          "indexed": false,
          "name": "obj",
          "type": "uint256"
        }
      ],
      "name": "trace_log",
      "type": "event"
    },
    {
      "constant": false,
      "inputs": [
        {
          "name": "_a",
          "type": "uint256"
        },
        {
          "name": "_b",
          "type": "uint256"
        },
        {
          "name": "_p",
          "type": "uint256"
        },
        {
          "name": "_n",
          "type": "uint256"
        },
        {
          "name": "_gx",
          "type": "uint256"
        },
        {
          "name": "_gy",
          "type": "uint256"
        }
      ],
      "name": "register_parameter",
      "outputs": [],
      "payable": false,
      "stateMutability": "nonpayable",
      "type": "function"
    },
    {
      "constant": true,
      "inputs": [],
      "name": "get_private_key",
      "outputs": [
        {
          "name": "",
          "type": "uint256"
        }
      ],
      "payable": false,
      "stateMutability": "view",
      "type": "function"
    },
    {
      "constant": false,
      "inputs": [],
      "name": "calculate_public_key",
      "outputs": [],
      "payable": false,
      "stateMutability": "nonpayable",
      "type": "function"
    },
    {
      "constant": true,
      "inputs": [],
      "name": "get_public_key",
      "outputs": [
        {
          "name": "",
          "type": "uint256"
        },
        {
          "name": "",
          "type": "uint256"
        }
      ],
      "payable": false,
      "stateMutability": "view",
      "type": "function"
    },
    {
      "constant": false,
      "inputs": [],
      "name": "credential_tracing",
      "outputs": [
        {
          "name": "",
          "type": "uint256"
        },
        {
          "name": "",
          "type": "uint256"
        }
      ],
      "payable": false,
      "stateMutability": "nonpayable",
      "type": "function"
    },
    {
      "constant": false,
      "inputs": [],
      "name": "identity_tracing",
      "outputs": [
        {
          "name": "",
          "type": "uint256"
        },
        {
          "name": "",
          "type": "uint256"
        }
      ],
      "payable": false,
      "stateMutability": "nonpayable",
      "type": "function"
    },
    {
      "constant": false,
      "inputs": [
        {
          "name": "xiupsilon_x",
          "type": "uint256"
        },
        {
          "name": "xiupsilon_y",
          "type": "uint256"
        }
      ],
      "name": "credential_calculating",
      "outputs": [],
      "payable": false,
      "stateMutability": "nonpayable",
      "type": "function"
    },
    {
      "constant": false,
      "inputs": [
        {
          "name": "zeta1_x",
          "type": "uint256"
        },
        {
          "name": "zeta1_y",
          "type": "uint256"
        }
      ],
      "name": "identity_calculating",
      "outputs": [],
      "payable": false,
      "stateMutability": "nonpayable",
      "type": "function"
    },
    {
      "constant": true,
      "inputs": [
        {
          "name": "x0",
          "type": "uint256"
        },
        {
          "name": "y0",
          "type": "uint256"
        }
      ],
      "name": "toProjectivePoint",
      "outputs": [
        {
          "name": "P",
          "type": "uint256[3]"
        }
      ],
      "payable": false,
      "stateMutability": "view",
      "type": "function"
    },
    {
      "constant": true,
      "inputs": [
        {
          "name": "x1",
          "type": "uint256"
        },
        {
          "name": "y1",
          "type": "uint256"
        },
        {
          "name": "x2",
          "type": "uint256"
        },
        {
          "name": "y2",
          "type": "uint256"
        }
      ],
      "name": "addAndReturnProjectivePoint",
      "outputs": [
        {
          "name": "P",
          "type": "uint256[3]"
        }
      ],
      "payable": false,
      "stateMutability": "view",
      "type": "function"
    },
    {
      "constant": true,
      "inputs": [
        {
          "name": "x0",
          "type": "uint256"
        },
        {
          "name": "y0",
          "type": "uint256"
        },
        {
          "name": "z0",
          "type": "uint256"
        }
      ],
      "name": "toAffinePoint",
      "outputs": [
        {
          "name": "x1",
          "type": "uint256"
        },
        {
          "name": "y1",
          "type": "uint256"
        }
      ],
      "payable": false,
      "stateMutability": "view",
      "type": "function"
    },
    {
      "constant": true,
      "inputs": [],
      "name": "zeroProj",
      "outputs": [
        {
          "name": "x",
          "type": "uint256"
        },
        {
          "name": "y",
          "type": "uint256"
        },
        {
          "name": "z",
          "type": "uint256"
        }
      ],
      "payable": false,
      "stateMutability": "view",
      "type": "function"
    },
    {
      "constant": true,
      "inputs": [],
      "name": "zeroAffine",
      "outputs": [
        {
          "name": "x",
          "type": "uint256"
        },
        {
          "name": "y",
          "type": "uint256"
        }
      ],
      "payable": false,
      "stateMutability": "pure",
      "type": "function"
    },
    {
      "constant": true,
      "inputs": [
        {
          "name": "x0",
          "type": "uint256"
        },
        {
          "name": "y0",
          "type": "uint256"
        }
      ],
      "name": "isZeroCurve",
      "outputs": [
        {
          "name": "isZero",
          "type": "bool"
        }
      ],
      "payable": false,
      "stateMutability": "view",
      "type": "function"
    },
    {
      "constant": true,
      "inputs": [
        {
          "name": "x",
          "type": "uint256"
        },
        {
          "name": "y",
          "type": "uint256"
        }
      ],
      "name": "isOnCurve",
      "outputs": [
        {
          "name": "",
          "type": "bool"
        }
      ],
      "payable": false,
      "stateMutability": "view",
      "type": "function"
    },
    {
      "constant": true,
      "inputs": [
        {
          "name": "x0",
          "type": "uint256"
        },
        {
          "name": "y0",
          "type": "uint256"
        },
        {
          "name": "z0",
          "type": "uint256"
        }
      ],
      "name": "twiceProj",
      "outputs": [
        {
          "name": "x1",
          "type": "uint256"
        },
        {
          "name": "y1",
          "type": "uint256"
        },
        {
          "name": "z1",
          "type": "uint256"
        }
      ],
      "payable": false,
      "stateMutability": "view",
      "type": "function"
    },
    {
      "constant": true,
      "inputs": [
        {
          "name": "x0",
          "type": "uint256"
        },
        {
          "name": "y0",
          "type": "uint256"
        },
        {
          "name": "z0",
          "type": "uint256"
        },
        {
          "name": "x1",
          "type": "uint256"
        },
        {
          "name": "y1",
          "type": "uint256"
        },
        {
          "name": "z1",
          "type": "uint256"
        }
      ],
      "name": "addProj",
      "outputs": [
        {
          "name": "x2",
          "type": "uint256"
        },
        {
          "name": "y2",
          "type": "uint256"
        },
        {
          "name": "z2",
          "type": "uint256"
        }
      ],
      "payable": false,
      "stateMutability": "view",
      "type": "function"
    },
    {
      "constant": true,
      "inputs": [
        {
          "name": "x0",
          "type": "uint256"
        },
        {
          "name": "y0",
          "type": "uint256"
        },
        {
          "name": "x1",
          "type": "uint256"
        },
        {
          "name": "y1",
          "type": "uint256"
        }
      ],
      "name": "add",
      "outputs": [
        {
          "name": "",
          "type": "uint256"
        },
        {
          "name": "",
          "type": "uint256"
        }
      ],
      "payable": false,
      "stateMutability": "view",
      "type": "function"
    },
    {
      "constant": true,
      "inputs": [
        {
          "name": "x0",
          "type": "uint256"
        },
        {
          "name": "y0",
          "type": "uint256"
        }
      ],
      "name": "twice",
      "outputs": [
        {
          "name": "",
          "type": "uint256"
        },
        {
          "name": "",
          "type": "uint256"
        }
      ],
      "payable": false,
      "stateMutability": "view",
      "type": "function"
    },
    {
      "constant": true,
      "inputs": [
        {
          "name": "x0",
          "type": "uint256"
        },
        {
          "name": "y0",
          "type": "uint256"
        },
        {
          "name": "exp",
          "type": "uint256"
        }
      ],
      "name": "multiplyPowerBase2",
      "outputs": [
        {
          "name": "",
          "type": "uint256"
        },
        {
          "name": "",
          "type": "uint256"
        }
      ],
      "payable": false,
      "stateMutability": "view",
      "type": "function"
    },
    {
      "constant": true,
      "inputs": [
        {
          "name": "x0",
          "type": "uint256"
        },
        {
          "name": "y0",
          "type": "uint256"
        },
        {
          "name": "scalar",
          "type": "uint256"
        }
      ],
      "name": "multiplyScalar",
      "outputs": [
        {
          "name": "x1",
          "type": "uint256"
        },
        {
          "name": "y1",
          "type": "uint256"
        }
      ],
      "payable": false,
      "stateMutability": "view",
      "type": "function"
    },
    {
      "constant": true,
      "inputs": [
        {
          "name": "scalar",
          "type": "uint256"
        }
      ],
      "name": "multipleGeneratorByScalar",
      "outputs": [
        {
          "name": "",
          "type": "uint256"
        },
        {
          "name": "",
          "type": "uint256"
        }
      ],
      "payable": false,
      "stateMutability": "view",
      "type": "function"
    }
  ],
  "bytecode": "0x60806040526000600b5534801561001557600080fd5b5033600660006101000a81548173ffffffffffffffffffffffffffffffffffffffff021916908373ffffffffffffffffffffffffffffffffffffffff1602179055506119c0806100666000396000f3006080604052600436106101cd576000357c0100000000000000000000000000000000000000000000000000000000900463ffffffff16806306c91ce3146101d257806308c10846146101fd57806309d3ef31146102285780630afb4ddc1461027a5780630b0dbcfa146102c25780630dbe671f1461031157806314c670601461033c5780632d58c9a2146103755780632e52d606146103a0578063322b24aa146103cb578063338d0dd61461042757806336996a951461045e5780634b06d3cb146104895780634bc34971146104e05780634df7e3d01461050b5780634e12bb5c146105365780635e80c854146105615780635ee27ac21461058c578063600f0051146105be578063675ca043146105d55780636f90a06114610631578063713eca281461065c57806372fb4a14146106e35780637892c9d11461073f5780637d94792a1461076a5780637ec8da8d1461079557806384dfba4614610808578063919f7a251461083a5780639ae8886a1461086c5780639c8316cf146108975780639e572b16146108ce578063c30cfa2d1461092d578063c80edca41461097c578063d8bfff3a146109df578063e022d77c14610a0a578063f214aba014610a70578063fdab498914610af1575b600080fd5b3480156101de57600080fd5b506101e7610b23565b6040518082815260200191505060405180910390f35b34801561020957600080fd5b50610212610b29565b6040518082815260200191505060405180910390f35b34801561023457600080fd5b5061025d6004803603810190808035906020019092919080359060200190929190505050610b2f565b604051808381526020018281526020019250505060405180910390f35b34801561028657600080fd5b506102a560048036038101908080359060200190929190505050610b63565b604051808381526020018281526020019250505060405180910390f35b3480156102ce57600080fd5b506102f76004803603810190808035906020019092919080359060200190929190505050610b7e565b604051808215151515815260200191505060405180910390f35b34801561031d57600080fd5b50610326610c44565b6040518082815260200191505060405180910390f35b34801561034857600080fd5b50610351610c4a565b60405180848152602001838152602001828152602001935050505060405180910390f35b34801561038157600080fd5b5061038a610c68565b6040518082815260200191505060405180910390f35b3480156103ac57600080fd5b506103b5610c6e565b6040518082815260200191505060405180910390f35b3480156103d757600080fd5b5061040a600480360381019080803590602001909291908035906020019092919080359060200190929190505050610c74565b604051808381526020018281526020019250505060405180910390f35b34801561043357600080fd5b5061045c6004803603810190808035906020019092919080359060200190929190505050610cd3565b005b34801561046a57600080fd5b50610473610d5a565b6040518082815260200191505060405180910390f35b34801561049557600080fd5b5061049e610d60565b604051808273ffffffffffffffffffffffffffffffffffffffff1673ffffffffffffffffffffffffffffffffffffffff16815260200191505060405180910390f35b3480156104ec57600080fd5b506104f5610d86565b6040518082815260200191505060405180910390f35b34801561051757600080fd5b50610520610d8c565b6040518082815260200191505060405180910390f35b34801561054257600080fd5b5061054b610d92565b6040518082815260200191505060405180910390f35b34801561056d57600080fd5b50610576610d9c565b6040518082815260200191505060405180910390f35b34801561059857600080fd5b506105a1610da2565b604051808381526020018281526020019250505060405180910390f35b3480156105ca57600080fd5b506105d3610db3565b005b3480156105e157600080fd5b50610614600480360381019080803590602001909291908035906020019092919080359060200190929190505050610dda565b604051808381526020018281526020019250505060405180910390f35b34801561063d57600080fd5b50610646610e18565b6040518082815260200191505060405180910390f35b34801561066857600080fd5b506106a560048036038101908080359060200190929190803590602001909291908035906020019092919080359060200190929190505050610e1e565b6040518082600360200280838360005b838110156106d05780820151818401526020810190506106b5565b5050505090500191505060405180910390f35b3480156106ef57600080fd5b50610722600480360381019080803590602001909291908035906020019092919080359060200190929190505050610e53565b604051808381526020018281526020019250505060405180910390f35b34801561074b57600080fd5b50610754610f5f565b6040518082815260200191505060405180910390f35b34801561077657600080fd5b5061077f610f65565b6040518082815260200191505060405180910390f35b3480156107a157600080fd5b506107ca6004803603810190808035906020019092919080359060200190929190505050610f6b565b6040518082600360200280838360005b838110156107f55780820151818401526020810190506107da565b5050505090500191505060405180910390f35b34801561081457600080fd5b5061081d611016565b604051808381526020018281526020019250505060405180910390f35b34801561084657600080fd5b5061084f61102a565b604051808381526020018281526020019250505060405180910390f35b34801561087857600080fd5b50610881611089565b6040518082815260200191505060405180910390f35b3480156108a357600080fd5b506108cc600480360381019080803590602001909291908035906020019092919050505061108f565b005b3480156108da57600080fd5b5061092b600480360381019080803590602001909291908035906020019092919080359060200190929190803590602001909291908035906020019092919080359060200190929190505050611106565b005b34801561093957600080fd5b506109626004803603810190808035906020019092919080359060200190929190505050611147565b604051808215151515815260200191505060405180910390f35b34801561098857600080fd5b506109bb600480360381019080803590602001909291908035906020019092919080359060200190929190505050611171565b60405180848152602001838152602001828152602001935050505060405180910390f35b3480156109eb57600080fd5b506109f4611335565b6040518082815260200191505060405180910390f35b348015610a1657600080fd5b50610a536004803603810190808035906020019092919080359060200190929190803590602001909291908035906020019092919050505061133b565b604051808381526020018281526020019250505060405180910390f35b348015610a7c57600080fd5b50610acd600480360381019080803590602001909291908035906020019092919080359060200190929190803590602001909291908035906020019092919080359060200190929190505050611375565b60405180848152602001838152602001828152602001935050505060405180910390f35b348015610afd57600080fd5b50610b0661146f565b604051808381526020018281526020019250505060405180910390f35b60005481565b600c5481565b6000806000610b4085856001611171565b809350819650829750505050610b57858583610dda565b92509250509250929050565b600080610b7560005460015485610e53565b91509150915091565b60008060008460001480610b93575060025485145b80610b9e5750836000145b80610baa575060025484145b15610bb85760009250610c3c565b600254801515610bc457fe5b8485099150600254801515610bd557fe5b85600254801515610be257fe5b8788090990506000600454141515610c1657600254801515610c0057fe5b600254801515610c0c57fe5b6004548709820890505b6000600554141515610c3657600254801515610c2e57fe5b600554820890505b80821492505b505092915050565b60045481565b60008060008060016000829250819150809050925092509250909192565b60015481565b60035481565b60008060008060008088935087925060019150600090505b86811015610cb857610c9f848484611171565b8094508195508296505050508080600101915050610c8c565b610cc3848484610dda565b9550955050505050935093915050565b600080600960003373ffffffffffffffffffffffffffffffffffffffff1673ffffffffffffffffffffffffffffffffffffffff168152602001908152602001600020541415610d4c57610d2a600c546003546114ce565b9050610d37838383610e53565b60116000601260008491905055839190505550505b610d558361157e565b505050565b600d5481565b600660009054906101000a900473ffffffffffffffffffffffffffffffffffffffff1681565b60125481565b60055481565b6000600c54905090565b60105481565b600080600d54600e54915091509091565b610dc4600054600154600c54610e53565b600d6000600e6000849190505583919050555050565b6000806000610deb846002546114ce565b9050600254801515610df957fe5b8187099250600254801515610e0a57fe5b818609915050935093915050565b600f5481565b610e26611971565b600080610e358787878761133b565b8092508193505050610e478282610f6b565b92505050949350505050565b6000806000806000806000871415610e7657610e6d611016565b95509550610f53565b6001871415610e8a57888895509550610f53565b6002871415610ea657610e9d8989610b2f565b95509550610f53565b88935087925060019150600190508895508794506000600288811515610ec857fe5b061415610ed757600094508495505b6001879060020a900496505b6000871115610f4357610ef7848484611171565b8094508195508296505050506001600288811515610f1157fe5b061415610f3357610f26848484898986611375565b8093508197508298505050505b6001879060020a90049650610ee3565b610f4e868683610dda565b955095505b50505050935093915050565b60115481565b600b5481565b610f73611971565b600254801515610f7f57fe5b6001600008816002600381101515610f9357fe5b602002018181525050600254801515610fa857fe5b816002600381101515610fb757fe5b60200201518409816000600381101515610fcd57fe5b602002018181525050600254801515610fe257fe5b816002600381101515610ff157fe5b6020020151830981600160038110151561100757fe5b60200201818152505092915050565b600080600080819150809050915091509091565b6000806001600760003373ffffffffffffffffffffffffffffffffffffffff1673ffffffffffffffffffffffffffffffffffffffff16815260200190815260200160002060008282540192505081905550601154601254915091509091565b60025481565b6000600760003373ffffffffffffffffffffffffffffffffffffffff1673ffffffffffffffffffffffffffffffffffffffff1681526020019081526020016000205414156110f9576110e48282600c54610e53565b600f6000601060008491905055839190505550505b61110282611657565b5050565b85600481905550846005819055508360028190555082600381905550816000819055508060018190555061113983611730565b600c81905550505050505050565b600080831480156111585750600082145b15611166576001905061116b565b600090505b92915050565b60008060008060008060006111868a8a611147565b1561119e57611193610c4a565b965096509650611328565b6002548015156111aa57fe5b888a0992506002548015156111bb57fe5b6002840992506002548015156111cd57fe5b8a840991506002548015156111de57fe5b89830991506002548015156111ef57fe5b60028309915060025480151561120157fe5b8a8b09995060025480151561121257fe5b60038b09935060025480151561122457fe5b888909975060025480151561123557fe5b6004548909975060025480151561124857fe5b888508935060025480151561125957fe5b848509905060025480151561126a57fe5b82600209995060025480151561127c57fe5b8a600254038208905060025480151561129157fe5b8160025403830899506002548015156112a657fe5b8a850999506002548015156112b757fe5b838a0998506002548015156112c857fe5b898a0998506002548015156112d957fe5b8960020998506002548015156112eb57fe5b89600254038b08955060025480151561130057fe5b818409965060025480151561131157fe5b838409945060025480151561132257fe5b83860994505b5050505093509350939050565b600e5481565b60008060006113508787600188886001611375565b809350819850829950505050611367878783610dda565b925092505094509492505050565b600080600080600080600061138a8d8d611147565b1561139d5789898996509650965061145f565b6113a78a8a611147565b156113ba578c8c8c96509650965061145f565b6002548015156113c657fe5b888d0993506002548015156113d757fe5b8b8a0992506002548015156113e857fe5b888e0991506002548015156113f957fe5b8b8b099050808214156114375782841415611424576114198d8d8d611171565b96509650965061145f565b61142c610c4a565b96509650965061145f565b61145260025480151561144657fe5b898d0983838688611751565b8097508198508299505050505b5050505096509650969350505050565b6000806001600760003373ffffffffffffffffffffffffffffffffffffffff1673ffffffffffffffffffffffffffffffffffffffff16815260200190815260200160002060008282540192505081905550600f54601054915091509091565b60008060008060008060008814806114e557508688145b806114f05750600087145b156114fe5760009550611573565b8688111561151557868881151561151157fe5b0697505b600193508692508791505b60008214151561155957818381151561153557fe5b04905083848202860383848402860380955081965082975083985050505050611520565b600085121561156f578460000387039550611573565b8495505b505050505092915050565b3373ffffffffffffffffffffffffffffffffffffffff167fecaf2ce53237aac054ad6ae1d2bd5f41f791b589000795e92aeccc771d693c9442600960003373ffffffffffffffffffffffffffffffffffffffff1673ffffffffffffffffffffffffffffffffffffffff16815260200190815260200160002054846040518080602001858152602001848152602001838152602001828103825260168152602001807f63726564656e7469616c5f74726163696e675f6c6f670000000000000000000081525060200194505050505060405180910390a250565b3373ffffffffffffffffffffffffffffffffffffffff167fecaf2ce53237aac054ad6ae1d2bd5f41f791b589000795e92aeccc771d693c9442600760003373ffffffffffffffffffffffffffffffffffffffff1673ffffffffffffffffffffffffffffffffffffffff16815260200190815260200160002054846040518080602001858152602001848152602001838152602001828103825260168152602001807f63726564656e7469616c5f74726163696e675f6c6f670000000000000000000081525060200194505050505060405180910390a250565b6000808261173c611891565b81151561174557fe5b06905080915050919050565b60008060008060008060008060025480151561176957fe5b8a600254038a08905060025480151561177e57fe5b8b600254038d08945060025480151561179357fe5b85860993506002548015156117a457fe5b81820991506002548015156117b557fe5b8d830991506002548015156117c657fe5b8c8c089a506002548015156117d757fe5b848c099a506002548015156117e857fe5b8b60025403830891506002548015156117fd57fe5b828609975060025480151561180e57fe5b858509925060025480151561181f57fe5b848d099b5060025480151561183057fe5b82600254038d089b5060025480151561184557fe5b8c8209905060025480151561185657fe5b838a09985060025480151561186757fe5b89600254038208965060025480151561187c57fe5b8d840995505050505050955095509592505050565b600042443342604051602001808581526020018481526020018373ffffffffffffffffffffffffffffffffffffffff1673ffffffffffffffffffffffffffffffffffffffff166c010000000000000000000000000281526014018281526020019450505050506040516020818303038152906040526040518082805190602001908083835b60208310151561193b5780518252602082019150602081019050602083039250611916565b6001836020036101000a038019825116818451168082178552505050505050905001915050604051809103902060019004905090565b6060604051908101604052806003906020820280388339808201915050905050905600a165627a7a723058202d6805f39c49b3f4a12ed9254432406943166e9c4aff61c32f4414f238a279090029",
  "source": "pragma solidity ^0.4.18;\r\n\r\n//author:rujia\r\n//website:www.rujia.uk\r\n//version:1.0\r\n\r\ncontract AuditTracer {\r\n    \r\n    uint256 public gx;\r\n    uint256 public gy;\r\n    uint256 public p;\r\n\tuint256 public n;\r\n    uint256 public a;\r\n    uint256 public b;\r\n \r\n    // The address of the account that created this ballot.\r\n    address public tracerCreator;\r\n    mapping (address => uint256) private CredentialTraceTimes;\r\n    mapping (address => uint256) private CredentialTraceResults;\r\n    \r\n    mapping (address => uint256) private IdentityTraceTimes;\r\n    mapping (address => uint256) private IdentityTraceResults;\r\n\t\r\n    uint256 public seed = 0;\r\n    uint256 public xt;\r\n    \r\n    uint256 public yt_x;\r\n    uint256 public yt_y;\r\n    \r\n    uint256 public c_x;\r\n    uint256 public c_y;\r\n    \r\n    uint256 public i_x;\r\n    uint256 public i_y;\r\n    \r\n    constructor() public {\r\n        tracerCreator = msg.sender;\r\n    }\r\n \r\n    event trace_log(\r\n        string information,\r\n        address indexed sender,\r\n        uint256 timestamp,\r\n        uint256 calltimes,\r\n        uint256 obj\r\n    );\r\n    \r\n    function credential_tracing_log(uint256 obj) internal {\r\n         emit trace_log(\"credential_tracing_log\", msg.sender, now, CredentialTraceTimes[msg.sender], obj);\r\n    }\r\n    \r\n    function identity_tracing_log(uint256 obj) internal {\r\n         emit trace_log(\"credential_tracing_log\", msg.sender, now, IdentityTraceTimes[msg.sender], obj);\r\n    }\r\n\t\r\n\tfunction register_parameter(uint256 _a, uint256 _b, uint256 _p, uint256 _n, uint256 _gx, uint256 _gy) public{ \r\n\t\ta = _a;\r\n\t\tb = _b;\r\n\t\tp = _p;\r\n\t\tn = _n;\r\n\t\tgx = _gx;\r\n\t\tgy = _gy;\r\n        xt = rand_less_than(_n);\r\n    }\r\n    \r\n    function get_private_key() public view returns(uint256){  \r\n\t\treturn xt;\r\n\t}\r\n    \r\n    function calculate_public_key() public{  \r\n        (yt_x, yt_y) = multiplyScalar(gx, gy, xt);\r\n\t}\r\n\t\r\n\tfunction get_public_key() public view returns(uint256 , uint256 ){  \r\n\t\treturn (yt_x, yt_y);\r\n\t}\r\n\t\r\n\tfunction credential_tracing() public returns(uint256,uint256){\r\n\t        CredentialTraceTimes[msg.sender] += 1;\r\n\t    return (c_x,c_y);\r\n\t}\r\n\t\r\n\tfunction identity_tracing() public returns(uint256,uint256){\r\n\t        CredentialTraceTimes[msg.sender] += 1;\r\n\t     return (i_x,i_y);\r\n\t}\r\n\r\n\t// trace the credential\r\n    function credential_calculating(uint256 xiupsilon_x, uint256 xiupsilon_y) public{\r\n\t    if (CredentialTraceTimes[msg.sender] == 0){\r\n            (c_x,c_y) = multiplyScalar(xiupsilon_x, xiupsilon_y, xt);\r\n        }\r\n        credential_tracing_log(xiupsilon_x);\r\n    }\r\n    \r\n    // trace the identity\r\n    function identity_calculating(uint256 zeta1_x, uint256 zeta1_y) public{\r\n        if (IdentityTraceTimes[msg.sender] == 0){\r\n            uint256 nxt = inverseMod(xt, n);\r\n            (i_x,i_y) = multiplyScalar(zeta1_x, zeta1_y, nxt);\t\r\n        }\r\n        identity_tracing_log(zeta1_x);\r\n    }\r\n    \r\n    function rand_less_than(uint256 upper_bound) private returns(uint256){\r\n        uint256 r = PRNG() % upper_bound;\r\n\t\treturn r;\r\n    }\r\n    \r\n    function PRNG() private view returns(uint256) {\r\n        return uint256(uint256(keccak256(abi.encodePacked(block.timestamp, block.difficulty,msg.sender,now)))) ;\r\n    }\r\n\r\n    function quick_power(uint256 al, uint256 bl, uint256 m) private pure returns(uint256){\r\n      uint256 result = 1;\r\n      for(uint256 count = 1; count <= bl; count*=2){\r\n          if(bl & count != 0){\r\n              result = mulmod(result, al, m);\r\n          }\r\n          al = mulmod(al, al, m);\r\n      }\r\n      return result;\r\n    }\r\n\r\n/**\r\n     * @dev Inverse of u in the field of modulo m.\r\n     */\r\n    function inverseMod(uint u, uint m) internal pure\r\n        returns (uint)\r\n    {\r\n        if (u == 0 || u == m || m == 0)\r\n            return 0;\r\n        if (u > m)\r\n            u = u % m;\r\n\r\n        int t1;\r\n        int t2 = 1;\r\n        uint r1 = m;\r\n        uint r2 = u;\r\n        uint q;\r\n\r\n        while (r2 != 0) {\r\n            q = r1 / r2;\r\n            (t1, t2, r1, r2) = (t2, t1 - int(q) * t2, r2, r1 - q * r2);\r\n        }\r\n\r\n        if (t1 < 0)\r\n            return (m - uint(-t1));\r\n\r\n        return uint(t1);\r\n    }\r\n\r\n    /**\r\n     * @dev Transform affine coordinates into projective coordinates.\r\n     */\r\n    function toProjectivePoint(uint x0, uint y0) public view\r\n        returns (uint[3] memory P)\r\n    {\r\n        P[2] = addmod(0, 1, p);\r\n        P[0] = mulmod(x0, P[2], p);\r\n        P[1] = mulmod(y0, P[2], p);\r\n    }\r\n\r\n    /**\r\n     * @dev Add two points in affine coordinates and return projective point.\r\n     */\r\n    function addAndReturnProjectivePoint(uint x1, uint y1, uint x2, uint y2) public view\r\n        returns (uint[3] memory P)\r\n    {\r\n        uint x;\r\n        uint y;\r\n        (x, y) = add(x1, y1, x2, y2);\r\n        P = toProjectivePoint(x, y);\r\n    }\r\n\r\n    /**\r\n     * @dev Transform from projective to affine coordinates.\r\n     */\r\n    function toAffinePoint(uint x0, uint y0, uint z0) public view\r\n        returns (uint x1, uint y1)\r\n    {\r\n        uint z0Inv;\r\n        z0Inv = inverseMod(z0, p);\r\n        x1 = mulmod(x0, z0Inv, p);\r\n        y1 = mulmod(y0, z0Inv, p);\r\n    }\r\n\r\n    /**\r\n     * @dev Return the zero curve in projective coordinates.\r\n     */\r\n    function zeroProj() public view\r\n        returns (uint x, uint y, uint z)\r\n    {\r\n        return (0, 1, 0);\r\n    }\r\n\r\n    /**\r\n     * @dev Return the zero curve in affine coordinates.\r\n     */\r\n    function zeroAffine() public pure\r\n        returns (uint x, uint y)\r\n    {\r\n        return (0, 0);\r\n    }\r\n\r\n    /**\r\n     * @dev Check if the curve is the zero curve.\r\n     */\r\n    function isZeroCurve(uint x0, uint y0) public view\r\n        returns (bool isZero)\r\n    {\r\n        if(x0 == 0 && y0 == 0) {\r\n            return true;\r\n        }\r\n        return false;\r\n    }\r\n\r\n    /**\r\n     * @dev Check if a point in affine coordinates is on the curve.\r\n     */\r\n    function isOnCurve(uint x, uint y) public view\r\n        returns (bool)\r\n    {\r\n        if (0 == x || x == p || 0 == y || y == p) {\r\n            return false;\r\n        }\r\n\r\n        uint LHS = mulmod(y, y, p); // y^2\r\n        uint RHS = mulmod(mulmod(x, x, p), x, p); // x^3\r\n\r\n        if (a != 0) {\r\n            RHS = addmod(RHS, mulmod(x, a, p), p); // x^3 + a*x\r\n        }\r\n        if (b != 0) {\r\n            RHS = addmod(RHS, b, p); // x^3 + a*x + b\r\n        }\r\n\r\n        return LHS == RHS;\r\n    }\r\n\r\n    /**\r\n     * @dev Double an elliptic curve point in projective coordinates. See\r\n     * https://www.nayuki.io/page/elliptic-curve-point-addition-in-projective-coordinates\r\n     */\r\n    function twiceProj(uint x0, uint y0, uint z0) public view\r\n        returns (uint x1, uint y1, uint z1)\r\n    {\r\n        uint t;\r\n        uint u;\r\n        uint v;\r\n        uint w;\r\n\r\n        if(isZeroCurve(x0, y0)) {\r\n            return zeroProj();\r\n        }\r\n\r\n        u = mulmod(y0, z0, p);\r\n        u = mulmod(u, 2, p);\r\n\r\n        v = mulmod(u, x0, p);\r\n        v = mulmod(v, y0, p);\r\n        v = mulmod(v, 2, p);\r\n\r\n        x0 = mulmod(x0, x0, p);\r\n        t = mulmod(x0, 3, p);\r\n\r\n        z0 = mulmod(z0, z0, p);\r\n        z0 = mulmod(z0, a, p);\r\n        t = addmod(t, z0, p);\r\n\r\n        w = mulmod(t, t, p);\r\n        x0 = mulmod(2, v, p);\r\n        w = addmod(w, p-x0, p);\r\n\r\n        x0 = addmod(v, p-w, p);\r\n        x0 = mulmod(t, x0, p);\r\n        y0 = mulmod(y0, u, p);\r\n        y0 = mulmod(y0, y0, p);\r\n        y0 = mulmod(2, y0, p);\r\n        y1 = addmod(x0, p-y0, p);\r\n\r\n        x1 = mulmod(u, w, p);\r\n\r\n        z1 = mulmod(u, u, p);\r\n        z1 = mulmod(z1, u, p);\r\n    }\r\n\r\n    /**\r\n     * @dev Add two elliptic curve points in projective coordinates. See\r\n     * https://www.nayuki.io/page/elliptic-curve-point-addition-in-projective-coordinates\r\n     */\r\n    function addProj(uint x0, uint y0, uint z0, uint x1, uint y1, uint z1) public view\r\n        returns (uint x2, uint y2, uint z2)\r\n    {\r\n        uint t0;\r\n        uint t1;\r\n        uint u0;\r\n        uint u1;\r\n\r\n        if (isZeroCurve(x0, y0)) {\r\n            return (x1, y1, z1);\r\n        }\r\n        else if (isZeroCurve(x1, y1)) {\r\n            return (x0, y0, z0);\r\n        }\r\n\r\n        t0 = mulmod(y0, z1, p);\r\n        t1 = mulmod(y1, z0, p);\r\n\r\n        u0 = mulmod(x0, z1, p);\r\n        u1 = mulmod(x1, z0, p);\r\n\r\n        if (u0 == u1) {\r\n            if (t0 == t1) {\r\n                return twiceProj(x0, y0, z0);\r\n            }\r\n            else {\r\n                return zeroProj();\r\n            }\r\n        }\r\n\r\n        (x2, y2, z2) = addProj2(mulmod(z0, z1, p), u0, u1, t1, t0);\r\n    }\r\n\r\n    /**\r\n     * @dev Helper function that splits addProj to avoid too many local variables.\r\n     */\r\n    function addProj2(uint v, uint u0, uint u1, uint t1, uint t0) private view\r\n        returns (uint x2, uint y2, uint z2)\r\n    {\r\n        uint u;\r\n        uint u2;\r\n        uint u3;\r\n        uint w;\r\n        uint t;\r\n\r\n        t = addmod(t0, p-t1, p);\r\n        u = addmod(u0, p-u1, p);\r\n        u2 = mulmod(u, u, p);\r\n\r\n        w = mulmod(t, t, p);\r\n        w = mulmod(w, v, p);\r\n        u1 = addmod(u1, u0, p);\r\n        u1 = mulmod(u1, u2, p);\r\n        w = addmod(w, p-u1, p);\r\n\r\n        x2 = mulmod(u, w, p);\r\n\r\n        u3 = mulmod(u2, u, p);\r\n        u0 = mulmod(u0, u2, p);\r\n        u0 = addmod(u0, p-w, p);\r\n        t = mulmod(t, u0, p);\r\n        t0 = mulmod(t0, u3, p);\r\n\r\n        y2 = addmod(t, p-t0, p);\r\n\r\n        z2 = mulmod(u3, v, p);\r\n    }\r\n\r\n    /**\r\n     * @dev Add two elliptic curve points in affine coordinates.\r\n     */\r\n    function add(uint x0, uint y0, uint x1, uint y1) public view\r\n        returns (uint, uint)\r\n    {\r\n        uint z0;\r\n\r\n        (x0, y0, z0) = addProj(x0, y0, 1, x1, y1, 1);\r\n\r\n        return toAffinePoint(x0, y0, z0);\r\n    }\r\n\r\n    /**\r\n     * @dev Double an elliptic curve point in affine coordinates.\r\n     */\r\n    function twice(uint x0, uint y0) public view\r\n        returns (uint, uint)\r\n    {\r\n        uint z0;\r\n\r\n        (x0, y0, z0) = twiceProj(x0, y0, 1);\r\n\r\n        return toAffinePoint(x0, y0, z0);\r\n    }\r\n\r\n    /**\r\n     * @dev Multiply an elliptic curve point by a 2 power base (i.e., (2^exp)*P)).\r\n     */\r\n    function multiplyPowerBase2(uint x0, uint y0, uint exp) public view\r\n        returns (uint, uint)\r\n    {\r\n        uint base2X = x0;\r\n        uint base2Y = y0;\r\n        uint base2Z = 1;\r\n\r\n        for(uint i = 0; i < exp; i++) {\r\n            (base2X, base2Y, base2Z) = twiceProj(base2X, base2Y, base2Z);\r\n        }\r\n\r\n        return toAffinePoint(base2X, base2Y, base2Z);\r\n    }\r\n\r\n    /**\r\n     * @dev Multiply an elliptic curve point by a scalar.\r\n     */\r\n    function multiplyScalar(uint x0, uint y0, uint scalar) public view\r\n        returns (uint x1, uint y1)\r\n    {\r\n        if(scalar == 0) {\r\n            return zeroAffine();\r\n        }\r\n        else if (scalar == 1) {\r\n            return (x0, y0);\r\n        }\r\n        else if (scalar == 2) {\r\n            return twice(x0, y0);\r\n        }\r\n\r\n        uint base2X = x0;\r\n        uint base2Y = y0;\r\n        uint base2Z = 1;\r\n        uint z1 = 1;\r\n        x1 = x0;\r\n        y1 = y0;\r\n\r\n        if(scalar%2 == 0) {\r\n            x1 = y1 = 0;\r\n        }\r\n\r\n        scalar = scalar >> 1;\r\n\r\n        while(scalar > 0) {\r\n            (base2X, base2Y, base2Z) = twiceProj(base2X, base2Y, base2Z);\r\n\r\n            if(scalar%2 == 1) {\r\n                (x1, y1, z1) = addProj(base2X, base2Y, base2Z, x1, y1, z1);\r\n            }\r\n\r\n            scalar = scalar >> 1;\r\n        }\r\n\r\n        return toAffinePoint(x1, y1, z1);\r\n    }\r\n\r\n    /**\r\n     * @dev Multiply the curve's generator point by a scalar.\r\n     */\r\n    function multipleGeneratorByScalar(uint scalar) public view\r\n        returns (uint, uint)\r\n    {\r\n        return multiplyScalar(gx, gy, scalar);\r\n    }\r\n}",
  "sourcePath": "/project/contracts/AuditTracer.sol",
  "compiler": {
    "name": "solc",
    "version": "0.4.25+commit.59dbf8f1.Emscripten.clang"
  },
  "schemaVersion": "3.0.0",
  "updatedAt": "2019-05-21T11:22:03.535Z"
}